{
  "address": "0xe7f1725E7734CE288F8367e1Bb143E90bb3F0512",
  "abi": [
    {
      "inputs": [
        {
          "internalType": "address",
          "name": "priceFeedAddress",
          "type": "address"
        }
      ],
      "stateMutability": "nonpayable",
      "type": "constructor"
    },
    {
      "anonymous": false,
      "inputs": [
        {
          "indexed": true,
          "internalType": "uint256",
          "name": "userId",
          "type": "uint256"
        },
        {
          "indexed": false,
          "internalType": "string",
          "name": "_name",
          "type": "string"
        },
        {
          "indexed": false,
          "internalType": "string",
          "name": "_description",
          "type": "string"
        },
        {
          "indexed": false,
          "internalType": "string",
          "name": "_urlId",
          "type": "string"
        },
        {
          "indexed": false,
          "internalType": "address payable",
          "name": "wallet",
          "type": "address"
        }
      ],
      "name": "ClientCreated",
      "type": "event"
    },
    {
      "stateMutability": "payable",
      "type": "fallback"
    },
    {
      "inputs": [
        {
          "internalType": "uint256",
          "name": "",
          "type": "uint256"
        }
      ],
      "name": "Coffees",
      "outputs": [
        {
          "internalType": "uint256",
          "name": "id",
          "type": "uint256"
        },
        {
          "internalType": "string",
          "name": "name",
          "type": "string"
        },
        {
          "internalType": "string",
          "name": "description",
          "type": "string"
        },
        {
          "internalType": "string",
          "name": "urlImg",
          "type": "string"
        },
        {
          "internalType": "uint256",
          "name": "tipAmount",
          "type": "uint256"
        },
        {
          "internalType": "address payable",
          "name": "wallet",
          "type": "address"
        }
      ],
      "stateMutability": "view",
      "type": "function"
    },
    {
      "inputs": [
        {
          "internalType": "string",
          "name": "_name",
          "type": "string"
        },
        {
          "internalType": "string",
          "name": "_description",
          "type": "string"
        },
        {
          "internalType": "string",
          "name": "_urlImg",
          "type": "string"
        },
        {
          "internalType": "address payable",
          "name": "wallet",
          "type": "address"
        }
      ],
      "name": "CreateUser",
      "outputs": [],
      "stateMutability": "nonpayable",
      "type": "function"
    },
    {
      "inputs": [],
      "name": "MINIMUM_USD",
      "outputs": [
        {
          "internalType": "uint256",
          "name": "",
          "type": "uint256"
        }
      ],
      "stateMutability": "view",
      "type": "function"
    },
    {
      "inputs": [],
      "name": "clientCount",
      "outputs": [
        {
          "internalType": "uint256",
          "name": "",
          "type": "uint256"
        }
      ],
      "stateMutability": "view",
      "type": "function"
    },
    {
      "inputs": [],
      "name": "fund",
      "outputs": [],
      "stateMutability": "payable",
      "type": "function"
    },
    {
      "inputs": [
        {
          "internalType": "address",
          "name": "fundingAddress",
          "type": "address"
        }
      ],
      "name": "getAddressToAmountFunded",
      "outputs": [
        {
          "internalType": "uint256",
          "name": "",
          "type": "uint256"
        }
      ],
      "stateMutability": "view",
      "type": "function"
    },
    {
      "inputs": [],
      "name": "getCoffeeList",
      "outputs": [
        {
          "components": [
            {
              "internalType": "uint256",
              "name": "id",
              "type": "uint256"
            },
            {
              "internalType": "string",
              "name": "name",
              "type": "string"
            },
            {
              "internalType": "string",
              "name": "description",
              "type": "string"
            },
            {
              "internalType": "string",
              "name": "urlImg",
              "type": "string"
            },
            {
              "internalType": "uint256",
              "name": "tipAmount",
              "type": "uint256"
            },
            {
              "internalType": "address payable",
              "name": "wallet",
              "type": "address"
            }
          ],
          "internalType": "struct BuyMeACoffee.Client[]",
          "name": "",
          "type": "tuple[]"
        }
      ],
      "stateMutability": "view",
      "type": "function"
    },
    {
      "inputs": [
        {
          "internalType": "uint256",
          "name": "index",
          "type": "uint256"
        }
      ],
      "name": "getFunder",
      "outputs": [
        {
          "internalType": "address",
          "name": "",
          "type": "address"
        }
      ],
      "stateMutability": "view",
      "type": "function"
    },
    {
      "inputs": [],
      "name": "owner",
      "outputs": [
        {
          "internalType": "address",
          "name": "",
          "type": "address"
        }
      ],
      "stateMutability": "view",
      "type": "function"
    },
    {
      "inputs": [],
      "name": "priceFeed",
      "outputs": [
        {
          "internalType": "contract AggregatorV3Interface",
          "name": "",
          "type": "address"
        }
      ],
      "stateMutability": "view",
      "type": "function"
    },
    {
      "inputs": [
        {
          "internalType": "uint256",
          "name": "_id",
          "type": "uint256"
        }
      ],
      "name": "tipCoffee",
      "outputs": [],
      "stateMutability": "payable",
      "type": "function"
    },
    {
      "inputs": [],
      "name": "totalAmount",
      "outputs": [
        {
          "internalType": "uint256",
          "name": "",
          "type": "uint256"
        }
      ],
      "stateMutability": "view",
      "type": "function"
    },
    {
      "inputs": [
        {
          "internalType": "address",
          "name": "",
          "type": "address"
        }
      ],
      "name": "totalDonatedUser",
      "outputs": [
        {
          "internalType": "uint256",
          "name": "",
          "type": "uint256"
        }
      ],
      "stateMutability": "view",
      "type": "function"
    },
    {
      "inputs": [
        {
          "internalType": "address",
          "name": "newOwner",
          "type": "address"
        }
      ],
      "name": "transferOwnership",
      "outputs": [],
      "stateMutability": "nonpayable",
      "type": "function"
    },
    {
      "stateMutability": "payable",
      "type": "receive"
    }
  ],
  "transactionHash": "0xdf2939ccc6a074a311f25e142f700a7154f7ae7f5a453a0b90d99ec2e3454840",
  "args": [
    "0x5FbDB2315678afecb367f032d93F642f64180aa3"
  ],
  "numDeployments": 1,
  "solcInputHash": "231690da46fa494c4010c68bbb527467",
  "bytecode": "0x6080604052600060045560006005553480156200001b57600080fd5b506040516200215e3803806200215e833981810160405281019062000041919062000134565b33600360006101000a81548173ffffffffffffffffffffffffffffffffffffffff021916908373ffffffffffffffffffffffffffffffffffffffff16021790555080600260006101000a81548173ffffffffffffffffffffffffffffffffffffffff021916908373ffffffffffffffffffffffffffffffffffffffff1602179055505062000166565b600080fd5b600073ffffffffffffffffffffffffffffffffffffffff82169050919050565b6000620000fc82620000cf565b9050919050565b6200010e81620000ef565b81146200011a57600080fd5b50565b6000815190506200012e8162000103565b92915050565b6000602082840312156200014d576200014c620000ca565b5b60006200015d848285016200011d565b91505092915050565b611fe880620001766000396000f3fe6080604052600436106100e15760003560e01c80639ebeb4c11161007f578063c346849011610059578063c3468490146102b1578063d7b4750c146102dc578063e541c71e14610319578063f2fde38b14610344576100f0565b80639ebeb4c114610249578063a53d69a514610265578063b60d4288146102a7576100f0565b80636b69a592116100bb5780636b69a5921461019f578063741bef1a146101ca5780638da5cb5b146101f55780639512ee3f14610220576100f0565b80630343fb25146100fa5780631a39d8ef146101375780633b49074a14610162576100f0565b366100f0576100ee61036d565b005b6100f861036d565b005b34801561010657600080fd5b50610121600480360381019061011c919061130a565b6104a8565b60405161012e9190611350565b60405180910390f35b34801561014357600080fd5b5061014c6104f1565b6040516101599190611350565b60405180910390f35b34801561016e57600080fd5b506101896004803603810190610184919061130a565b6104f7565b6040516101969190611350565b60405180910390f35b3480156101ab57600080fd5b506101b461050f565b6040516101c19190611350565b60405180910390f35b3480156101d657600080fd5b506101df61051c565b6040516101ec91906113ca565b60405180910390f35b34801561020157600080fd5b5061020a610542565b60405161021791906113f4565b60405180910390f35b34801561022c57600080fd5b5061024760048036038101906102429190611593565b610568565b005b610263600480360381019061025e919061167a565b6107bb565b005b34801561027157600080fd5b5061028c6004803603810190610287919061167a565b610aed565b60405161029e9695949392919061173e565b60405180910390f35b6102af61036d565b005b3480156102bd57600080fd5b506102c6610cf1565b6040516102d39190611975565b60405180910390f35b3480156102e857600080fd5b5061030360048036038101906102fe919061167a565b610f70565b60405161031091906113f4565b60405180910390f35b34801561032557600080fd5b5061032e610fb7565b60405161033b9190611350565b60405180910390f35b34801561035057600080fd5b5061036b6004803603810190610366919061130a565b610fbd565b005b6802b5e3af16b18800006103ac600260009054906101000a900473ffffffffffffffffffffffffffffffffffffffff163461109190919063ffffffff16565b10156103ed576040517f08c379a00000000000000000000000000000000000000000000000000000000081526004016103e4906119e3565b60405180910390fd5b34600160003373ffffffffffffffffffffffffffffffffffffffff1673ffffffffffffffffffffffffffffffffffffffff168152602001908152602001600020600082825461043c9190611a32565b925050819055506000339080600181540180825580915050600190039060005260206000200160009091909190916101000a81548173ffffffffffffffffffffffffffffffffffffffff021916908373ffffffffffffffffffffffffffffffffffffffff160217905550565b6000600160008373ffffffffffffffffffffffffffffffffffffffff1673ffffffffffffffffffffffffffffffffffffffff168152602001908152602001600020549050919050565b60055481565b60066020528060005260406000206000915090505481565b6802b5e3af16b188000081565b600260009054906101000a900473ffffffffffffffffffffffffffffffffffffffff1681565b600360009054906101000a900473ffffffffffffffffffffffffffffffffffffffff1681565b600360009054906101000a900473ffffffffffffffffffffffffffffffffffffffff1673ffffffffffffffffffffffffffffffffffffffff163373ffffffffffffffffffffffffffffffffffffffff16146105f8576040517f08c379a00000000000000000000000000000000000000000000000000000000081526004016105ef90611ad4565b60405180910390fd5b600073ffffffffffffffffffffffffffffffffffffffff168173ffffffffffffffffffffffffffffffffffffffff16141561063257600080fd5b60006040518060c001604052806004548152602001868152602001858152602001848152602001600081526020018373ffffffffffffffffffffffffffffffffffffffff16815250905060078190806001815401808255809150506001900390600052602060002090600602016000909190919091506000820151816000015560208201518160010190805190602001906106ce9291906111f5565b5060408201518160020190805190602001906106eb9291906111f5565b5060608201518160030190805190602001906107089291906111f5565b506080820151816004015560a08201518160050160006101000a81548173ffffffffffffffffffffffffffffffffffffffff021916908373ffffffffffffffffffffffffffffffffffffffff16021790555050506004547f7d6b0c49275388b04548b8676fe88c45ab5fe46efc5f88d5892b8773dc4f901a868686866040516107949493929190611af4565b60405180910390a2600460008154809291906107af90611b4e565b91905055505050505050565b806004548110610800576040517f08c379a00000000000000000000000000000000000000000000000000000000081526004016107f790611be3565b60405180910390fd5b60006007838154811061081657610815611c03565b5b90600052602060002090600602016040518060c00160405290816000820154815260200160018201805461084990611c61565b80601f016020809104026020016040519081016040528092919081815260200182805461087590611c61565b80156108c25780601f10610897576101008083540402835291602001916108c2565b820191906000526020600020905b8154815290600101906020018083116108a557829003601f168201915b505050505081526020016002820180546108db90611c61565b80601f016020809104026020016040519081016040528092919081815260200182805461090790611c61565b80156109545780601f1061092957610100808354040283529160200191610954565b820191906000526020600020905b81548152906001019060200180831161093757829003601f168201915b5050505050815260200160038201805461096d90611c61565b80601f016020809104026020016040519081016040528092919081815260200182805461099990611c61565b80156109e65780601f106109bb576101008083540402835291602001916109e6565b820191906000526020600020905b8154815290600101906020018083116109c957829003601f168201915b50505050508152602001600482015481526020016005820160009054906101000a900473ffffffffffffffffffffffffffffffffffffffff1673ffffffffffffffffffffffffffffffffffffffff1673ffffffffffffffffffffffffffffffffffffffff1681525050905060008160a0015190503482608001818151610a6c9190611a32565b9150818152505034600554610a819190611a32565b60058190555034600660003373ffffffffffffffffffffffffffffffffffffffff1673ffffffffffffffffffffffffffffffffffffffff1681526020019081526020016000206000828254610ad69190611a32565b92505081905550610ae781346110cd565b50505050565b60078181548110610afd57600080fd5b9060005260206000209060060201600091509050806000015490806001018054610b2690611c61565b80601f0160208091040260200160405190810160405280929190818152602001828054610b5290611c61565b8015610b9f5780601f10610b7457610100808354040283529160200191610b9f565b820191906000526020600020905b815481529060010190602001808311610b8257829003601f168201915b505050505090806002018054610bb490611c61565b80601f0160208091040260200160405190810160405280929190818152602001828054610be090611c61565b8015610c2d5780601f10610c0257610100808354040283529160200191610c2d565b820191906000526020600020905b815481529060010190602001808311610c1057829003601f168201915b505050505090806003018054610c4290611c61565b80601f0160208091040260200160405190810160405280929190818152602001828054610c6e90611c61565b8015610cbb5780601f10610c9057610100808354040283529160200191610cbb565b820191906000526020600020905b815481529060010190602001808311610c9e57829003601f168201915b5050505050908060040154908060050160009054906101000a900473ffffffffffffffffffffffffffffffffffffffff16905086565b60606007805480602002602001604051908101604052809291908181526020016000905b82821015610f6757838290600052602060002090600602016040518060c001604052908160008201548152602001600182018054610d5290611c61565b80601f0160208091040260200160405190810160405280929190818152602001828054610d7e90611c61565b8015610dcb5780601f10610da057610100808354040283529160200191610dcb565b820191906000526020600020905b815481529060010190602001808311610dae57829003601f168201915b50505050508152602001600282018054610de490611c61565b80601f0160208091040260200160405190810160405280929190818152602001828054610e1090611c61565b8015610e5d5780601f10610e3257610100808354040283529160200191610e5d565b820191906000526020600020905b815481529060010190602001808311610e4057829003601f168201915b50505050508152602001600382018054610e7690611c61565b80601f0160208091040260200160405190810160405280929190818152602001828054610ea290611c61565b8015610eef5780601f10610ec457610100808354040283529160200191610eef565b820191906000526020600020905b815481529060010190602001808311610ed257829003601f168201915b50505050508152602001600482015481526020016005820160009054906101000a900473ffffffffffffffffffffffffffffffffffffffff1673ffffffffffffffffffffffffffffffffffffffff1673ffffffffffffffffffffffffffffffffffffffff168152505081526020019060010190610d15565b50505050905090565b6000808281548110610f8557610f84611c03565b5b9060005260206000200160009054906101000a900473ffffffffffffffffffffffffffffffffffffffff169050919050565b60045481565b600360009054906101000a900473ffffffffffffffffffffffffffffffffffffffff1673ffffffffffffffffffffffffffffffffffffffff163373ffffffffffffffffffffffffffffffffffffffff161461104d576040517f08c379a000000000000000000000000000000000000000000000000000000000815260040161104490611ad4565b60405180910390fd5b80600360006101000a81548173ffffffffffffffffffffffffffffffffffffffff021916908373ffffffffffffffffffffffffffffffffffffffff16021790555050565b60008061109d83611155565b90506000670de0b6b3a764000085836110b69190611c93565b6110c09190611d1c565b9050809250505092915050565b600081116110da57600080fd5b60008273ffffffffffffffffffffffffffffffffffffffff168260405161110090611d7e565b60006040518083038185875af1925050503d806000811461113d576040519150601f19603f3d011682016040523d82523d6000602084013e611142565b606091505b505090508061115057600080fd5b505050565b6000808273ffffffffffffffffffffffffffffffffffffffff1663feaf968c6040518163ffffffff1660e01b815260040160a06040518083038186803b15801561119e57600080fd5b505afa1580156111b2573d6000803e3d6000fd5b505050506040513d601f19601f820116820180604052508101906111d69190611e20565b5050509150506402540be400816111ed9190611e9b565b915050919050565b82805461120190611c61565b90600052602060002090601f016020900481019282611223576000855561126a565b82601f1061123c57805160ff191683800117855561126a565b8280016001018555821561126a579182015b8281111561126957825182559160200191906001019061124e565b5b509050611277919061127b565b5090565b5b8082111561129457600081600090555060010161127c565b5090565b6000604051905090565b600080fd5b600080fd5b600073ffffffffffffffffffffffffffffffffffffffff82169050919050565b60006112d7826112ac565b9050919050565b6112e7816112cc565b81146112f257600080fd5b50565b600081359050611304816112de565b92915050565b6000602082840312156113205761131f6112a2565b5b600061132e848285016112f5565b91505092915050565b6000819050919050565b61134a81611337565b82525050565b60006020820190506113656000830184611341565b92915050565b6000819050919050565b600061139061138b611386846112ac565b61136b565b6112ac565b9050919050565b60006113a282611375565b9050919050565b60006113b482611397565b9050919050565b6113c4816113a9565b82525050565b60006020820190506113df60008301846113bb565b92915050565b6113ee816112cc565b82525050565b600060208201905061140960008301846113e5565b92915050565b600080fd5b600080fd5b6000601f19601f8301169050919050565b7f4e487b7100000000000000000000000000000000000000000000000000000000600052604160045260246000fd5b61146282611419565b810181811067ffffffffffffffff821117156114815761148061142a565b5b80604052505050565b6000611494611298565b90506114a08282611459565b919050565b600067ffffffffffffffff8211156114c0576114bf61142a565b5b6114c982611419565b9050602081019050919050565b82818337600083830152505050565b60006114f86114f3846114a5565b61148a565b90508281526020810184848401111561151457611513611414565b5b61151f8482856114d6565b509392505050565b600082601f83011261153c5761153b61140f565b5b813561154c8482602086016114e5565b91505092915050565b6000611560826112ac565b9050919050565b61157081611555565b811461157b57600080fd5b50565b60008135905061158d81611567565b92915050565b600080600080608085870312156115ad576115ac6112a2565b5b600085013567ffffffffffffffff8111156115cb576115ca6112a7565b5b6115d787828801611527565b945050602085013567ffffffffffffffff8111156115f8576115f76112a7565b5b61160487828801611527565b935050604085013567ffffffffffffffff811115611625576116246112a7565b5b61163187828801611527565b92505060606116428782880161157e565b91505092959194509250565b61165781611337565b811461166257600080fd5b50565b6000813590506116748161164e565b92915050565b6000602082840312156116905761168f6112a2565b5b600061169e84828501611665565b91505092915050565b600081519050919050565b600082825260208201905092915050565b60005b838110156116e15780820151818401526020810190506116c6565b838111156116f0576000848401525b50505050565b6000611701826116a7565b61170b81856116b2565b935061171b8185602086016116c3565b61172481611419565b840191505092915050565b61173881611555565b82525050565b600060c0820190506117536000830189611341565b818103602083015261176581886116f6565b9050818103604083015261177981876116f6565b9050818103606083015261178d81866116f6565b905061179c6080830185611341565b6117a960a083018461172f565b979650505050505050565b600081519050919050565b600082825260208201905092915050565b6000819050602082019050919050565b6117e981611337565b82525050565b600082825260208201905092915050565b600061180b826116a7565b61181581856117ef565b93506118258185602086016116c3565b61182e81611419565b840191505092915050565b61184281611555565b82525050565b600060c08301600083015161186060008601826117e0565b50602083015184820360208601526118788282611800565b915050604083015184820360408601526118928282611800565b915050606083015184820360608601526118ac8282611800565b91505060808301516118c160808601826117e0565b5060a08301516118d460a0860182611839565b508091505092915050565b60006118eb8383611848565b905092915050565b6000602082019050919050565b600061190b826117b4565b61191581856117bf565b935083602082028501611927856117d0565b8060005b85811015611963578484038952815161194485826118df565b945061194f836118f3565b925060208a0199505060018101905061192b565b50829750879550505050505092915050565b6000602082019050818103600083015261198f8184611900565b905092915050565b7f596f75206e65656420746f207370656e64206d6f726520455448210000000000600082015250565b60006119cd601b836116b2565b91506119d882611997565b602082019050919050565b600060208201905081810360008301526119fc816119c0565b9050919050565b7f4e487b7100000000000000000000000000000000000000000000000000000000600052601160045260246000fd5b6000611a3d82611337565b9150611a4883611337565b9250827fffffffffffffffffffffffffffffffffffffffffffffffffffffffffffffffff03821115611a7d57611a7c611a03565b5b828201905092915050565b7f55736572206e6f74206f776e6572000000000000000000000000000000000000600082015250565b6000611abe600e836116b2565b9150611ac982611a88565b602082019050919050565b60006020820190508181036000830152611aed81611ab1565b9050919050565b60006080820190508181036000830152611b0e81876116f6565b90508181036020830152611b2281866116f6565b90508181036040830152611b3681856116f6565b9050611b45606083018461172f565b95945050505050565b6000611b5982611337565b91507fffffffffffffffffffffffffffffffffffffffffffffffffffffffffffffffff821415611b8c57611b8b611a03565b5b600182019050919050565b7f436c69656e7420646f65736e2774206578697374000000000000000000000000600082015250565b6000611bcd6014836116b2565b9150611bd882611b97565b602082019050919050565b60006020820190508181036000830152611bfc81611bc0565b9050919050565b7f4e487b7100000000000000000000000000000000000000000000000000000000600052603260045260246000fd5b7f4e487b7100000000000000000000000000000000000000000000000000000000600052602260045260246000fd5b60006002820490506001821680611c7957607f821691505b60208210811415611c8d57611c8c611c32565b5b50919050565b6000611c9e82611337565b9150611ca983611337565b9250817fffffffffffffffffffffffffffffffffffffffffffffffffffffffffffffffff0483118215151615611ce257611ce1611a03565b5b828202905092915050565b7f4e487b7100000000000000000000000000000000000000000000000000000000600052601260045260246000fd5b6000611d2782611337565b9150611d3283611337565b925082611d4257611d41611ced565b5b828204905092915050565b600081905092915050565b50565b6000611d68600083611d4d565b9150611d7382611d58565b600082019050919050565b6000611d8982611d5b565b9150819050919050565b600069ffffffffffffffffffff82169050919050565b611db281611d93565b8114611dbd57600080fd5b50565b600081519050611dcf81611da9565b92915050565b6000819050919050565b611de881611dd5565b8114611df357600080fd5b50565b600081519050611e0581611ddf565b92915050565b600081519050611e1a8161164e565b92915050565b600080600080600060a08688031215611e3c57611e3b6112a2565b5b6000611e4a88828901611dc0565b9550506020611e5b88828901611df6565b9450506040611e6c88828901611e0b565b9350506060611e7d88828901611e0b565b9250506080611e8e88828901611dc0565b9150509295509295909350565b6000611ea682611dd5565b9150611eb183611dd5565b9250827f7fffffffffffffffffffffffffffffffffffffffffffffffffffffffffffffff0482116000841360008413161615611ef057611eef611a03565b5b817f80000000000000000000000000000000000000000000000000000000000000000583126000841260008413161615611f2d57611f2c611a03565b5b827f80000000000000000000000000000000000000000000000000000000000000000582126000841360008412161615611f6a57611f69611a03565b5b827f7fffffffffffffffffffffffffffffffffffffffffffffffffffffffffffffff0582126000841260008412161615611fa757611fa6611a03565b5b82820290509291505056fea26469706673582212203f4216f1aca2a90d64dcb20af1bd72c98452991c49f9817f31ff5d6f9abc109864736f6c63430008090033",
  "devdoc": {
    "author": "Jon Froemming",
    "details": "This implements price feeds as our library",
    "kind": "dev",
    "methods": {},
    "title": "A contract to but Coffee",
    "version": 1
  },
  "userdoc": {
    "kind": "user",
    "methods": {},
    "notice": "This contract is a demo",
    "version": 1
  },
  "storageLayout": {
    "storage": [
      {
        "astId": 62,
        "contract": "contracts/BuyMeACoffee.sol:BuyMeACoffee",
        "label": "funders",
        "offset": 0,
        "slot": "0",
        "type": "t_array(t_address)dyn_storage"
      },
      {
        "astId": 66,
        "contract": "contracts/BuyMeACoffee.sol:BuyMeACoffee",
        "label": "addressToAmountFunded",
        "offset": 0,
        "slot": "1",
        "type": "t_mapping(t_address,t_uint256)"
      },
      {
        "astId": 69,
        "contract": "contracts/BuyMeACoffee.sol:BuyMeACoffee",
        "label": "priceFeed",
        "offset": 0,
        "slot": "2",
        "type": "t_contract(AggregatorV3Interface)45"
      },
      {
        "astId": 71,
        "contract": "contracts/BuyMeACoffee.sol:BuyMeACoffee",
        "label": "owner",
        "offset": 0,
        "slot": "3",
        "type": "t_address"
      },
      {
        "astId": 74,
        "contract": "contracts/BuyMeACoffee.sol:BuyMeACoffee",
        "label": "clientCount",
        "offset": 0,
        "slot": "4",
        "type": "t_uint256"
      },
      {
        "astId": 77,
        "contract": "contracts/BuyMeACoffee.sol:BuyMeACoffee",
        "label": "totalAmount",
        "offset": 0,
        "slot": "5",
        "type": "t_uint256"
      },
      {
        "astId": 81,
        "contract": "contracts/BuyMeACoffee.sol:BuyMeACoffee",
        "label": "totalDonatedUser",
        "offset": 0,
        "slot": "6",
        "type": "t_mapping(t_address,t_uint256)"
      },
      {
        "astId": 85,
        "contract": "contracts/BuyMeACoffee.sol:BuyMeACoffee",
        "label": "Coffees",
        "offset": 0,
        "slot": "7",
        "type": "t_array(t_struct(Client)206_storage)dyn_storage"
      }
    ],
    "types": {
      "t_address": {
        "encoding": "inplace",
        "label": "address",
        "numberOfBytes": "20"
      },
      "t_address_payable": {
        "encoding": "inplace",
        "label": "address payable",
        "numberOfBytes": "20"
      },
      "t_array(t_address)dyn_storage": {
        "base": "t_address",
        "encoding": "dynamic_array",
        "label": "address[]",
        "numberOfBytes": "32"
      },
      "t_array(t_struct(Client)206_storage)dyn_storage": {
        "base": "t_struct(Client)206_storage",
        "encoding": "dynamic_array",
        "label": "struct BuyMeACoffee.Client[]",
        "numberOfBytes": "32"
      },
      "t_contract(AggregatorV3Interface)45": {
        "encoding": "inplace",
        "label": "contract AggregatorV3Interface",
        "numberOfBytes": "20"
      },
      "t_mapping(t_address,t_uint256)": {
        "encoding": "mapping",
        "key": "t_address",
        "label": "mapping(address => uint256)",
        "numberOfBytes": "32",
        "value": "t_uint256"
      },
      "t_string_storage": {
        "encoding": "bytes",
        "label": "string",
        "numberOfBytes": "32"
      },
      "t_struct(Client)206_storage": {
        "encoding": "inplace",
        "label": "struct BuyMeACoffee.Client",
        "members": [
          {
            "astId": 195,
            "contract": "contracts/BuyMeACoffee.sol:BuyMeACoffee",
            "label": "id",
            "offset": 0,
            "slot": "0",
            "type": "t_uint256"
          },
          {
            "astId": 197,
            "contract": "contracts/BuyMeACoffee.sol:BuyMeACoffee",
            "label": "name",
            "offset": 0,
            "slot": "1",
            "type": "t_string_storage"
          },
          {
            "astId": 199,
            "contract": "contracts/BuyMeACoffee.sol:BuyMeACoffee",
            "label": "description",
            "offset": 0,
            "slot": "2",
            "type": "t_string_storage"
          },
          {
            "astId": 201,
            "contract": "contracts/BuyMeACoffee.sol:BuyMeACoffee",
            "label": "urlImg",
            "offset": 0,
            "slot": "3",
            "type": "t_string_storage"
          },
          {
            "astId": 203,
            "contract": "contracts/BuyMeACoffee.sol:BuyMeACoffee",
            "label": "tipAmount",
            "offset": 0,
            "slot": "4",
            "type": "t_uint256"
          },
          {
            "astId": 205,
            "contract": "contracts/BuyMeACoffee.sol:BuyMeACoffee",
            "label": "wallet",
            "offset": 0,
            "slot": "5",
            "type": "t_address_payable"
          }
        ],
        "numberOfBytes": "192"
      },
      "t_uint256": {
        "encoding": "inplace",
        "label": "uint256",
        "numberOfBytes": "32"
      }
    }
  }
}